:020000040800F2
:10000000600B002089010008351600082D16000835
:1000100031160008B11300084B3000080000000042
:10002000000000000000000000000000451D000866
:10003000B5130008000000002D1C000881210008F5
:10004000A3010008A3010008A3010008A301000800
:10005000A3010008A3010008A3010008A3010008F0
:10006000A3010008A3010008A3010008A3010008E0
:10007000A3010008A3010008A3010008A3010008D0
:10008000A3010008A3010008A3010008A3010008C0
:10009000A3010008A3010008A3010008A3010008B0
:1000A000A3010008A3010008A3010008A3010008A0
:1000B000A3010008E5210008A3010008A30100082E
:1000C000A3010008A3010008A3010008A301000880
:1000D000A301000885250008152B0008A92B00089E
:1000E000A3010008A3010008A301000800F002F822
:1000F00000F03AF80AA090E8000C82448344AAF188
:100100000107DA4501D100F02FF8AFF2090EBAE885
:100110000F0013F0010F18BFFB1A43F0010318473B
:10012000B0630000D0630000103A24BF78C878C1E3
:10013000FAD8520724BF30C830C144BF04680C60ED
:10014000704700000023002400250026103A28BF35
:1001500078C1FBD8520728BF30C148BF0B60704739
:100160001FB51FBD10B510BD00F036F81146FFF7E2
:10017000F7FF02F08FFF00F054F803B4FFF7F2FF2F
:1001800003BC00F057F800000948804709480047C1
:10019000FEE7FEE7FEE7FEE7FEE7FEE7FEE7FEE737
:1001A000FEE7FEE704480549054A064B7047000094
:1001B00085210008ED00000860050020600B00208C
:1001C00060070020600700207047704770470000FC
:1001D00000487047000500207546FFF7F9FFAE465E
:1001E00005006946534620F00700854618B020B543
:1001F000FFF7D8FFBDE820404FF000064FF00007A2
:100200004FF000084FF0000B21F00701AC46ACE8BE
:10021000C009ACE8C009ACE8C009ACE8C0098D462B
:10022000704710B50446AFF300802046BDE810408B
:10023000FFF7A3BF01491820ABBEFEE7260002006E
:100240007047000070B50425284801F0E1FE2848F9
:1002500001F0FCFE502001F0AEF8264801F098FEB7
:1002600035E0254800880D2800D035E000240FE057
:10027000214800880D2800D00CE0204603F01AFC2D
:10028000064601F0A3FE1D48008801F094F8641CA6
:100290002D2CEDDD00BF2D240FE0174800880D2820
:1002A00000D00CE0204603F005FC064601F08EFE6F
:1002B0001248008801F07FF8641E002CEDDC00BFBE
:1002C0000D4800880D2800D006E0681E85B21DB1DB
:1002D000094800880D28C4D000BF074800880D28B1
:1002E00002D102200449088070BD00000000A04136
:1002F000000034420000B4421A0000201E0000201A
:1003000010B51C480088D0B91B4801F09FFE1B485F
:1003100001F03EFE1A48008801F04DF8164801F041
:1003200077FE164801F052FE1548008801F043F8A8
:100330000C201449088001200E49088019E00E485D
:1003400001F066FE0D4801F041FE0D48008801F005
:1003500032F8094801F07AFE084801F019FE084811
:10036000008801F028F80C20064908800020014987
:10037000088010BD2A00002000000C4200000C4341
:100380001C0000201A00002010B51D480088D8B9B4
:100390001C4801F0FDFD1C4801F058FE1B48008878
:1003A00001F009F8174801F011FE174801F030FE7E
:1003B00016480088503000F0FEFF022014490880E3
:1003C00001200F4908801AE00E4801F0FFFD0E4899
:1003D00001F01EFE0D48008800F0EDFF094801F015
:1003E000D7FD094801F032FE08480088503000F07F
:1003F000E2FF02200649088000200149088010BD64
:100400002800002000000C4300000C421C000020CB
:100410001A00002010B55EE002203149088008462D
:100420000088801C088040E02E4801F0CFFD2E4857
:1004300001F0EEFD2D48008800F0BDFF2C4800883B
:10044000062800D03BE0274801F0A2FD264801F035
:10045000FDFD2648008800F0AEFF254800880628EC
:1004600000D02CE0234801F0B1FD224801F0D0FD7E
:100470001E48008800F09FFF1D480088062800D015
:100480001DE01C4801F084FD1A4801F0DFFD17480B
:10049000008800F090FF16480088062800D00EE083
:1004A0000F480088401E0E4908800D48008810B98A
:1004B0001148008818B10E4800880628B4D000BF43
:1004C0000D480088012806D009480088062802D176
:1004D0000220074908800648008806289CD010BDE5
:1004E0002600002000003442000007431C000020CA
:1004F0001A0000200000B442180000202DE9F0414D
:1005000001260324A7E0574801F042FD564801F0B8
:100510005DFD3C2000F04FFF544801F097FD5A2547
:100520000EE0534800880F2800D00BE0284603F067
:10053000C1FA074601F06CFD062000F03CFF6D1C7F
:10054000B42DEEDB00BF14E0B4250EE0484800886F
:100550000F2800D00BE0284603F0ACFA074601F064
:1005600057FD0F2000F027FF6D1E962DEEDC00BF1B
:10057000641E1CB13E4800880F28E5D03C48008826
:100580000F2800D06AE0642000F015FF354801F024
:10059000FFFC344801F01AFD354800880F2800D0D0
:1005A0005CE0502000F007FF2E4801F031FD2D489F
:1005B00001F04CFD642000F0FEFE2D4800880F285D
:1005C00000D04BE00324274801F000FD264801F04D
:1005D000DFFC274800880F2800D03FE03C2000F0D7
:1005E000EAFE224801F014FD5A250EE0204800885A
:1005F0000F2800D00BE0284603F05CFA074601F014
:1006000025FD062000F0D7FE6D1CB42DEEDB00BFEB
:1006100014E0B4250EE0164800880F2800D00BE047
:10062000284603F047FA074601F010FD0F2000F0BE
:10063000C2FE6D1E962DEEDC00BF641E1CB10C4880
:1006400000880F28E5D00A4800880F2802D1022030
:10065000074908800026002E7FF455AF00BFBDE893
:10066000F08100000000B4420000A0410000DC4224
:100670001A00002010B55EE00220314908800846CB
:100680000088801C088040E02E4801F081FC2E4844
:1006900001F0DCFC2D48008800F08DFE2C4800881D
:1006A000072800D03BE0274801F090FC264801F0E5
:1006B000AFFC2648008800F07EFE25480088072809
:1006C00000D02CE0234801F063FC224801F0BEFC7E
:1006D0001E48008800F06FFE1D480088072800D0E3
:1006E0001DE01C4801F072FC1A4801F091FC17480B
:1006F000008800F060FE16480088072800D00EE051
:100700000F480088401E0E4908800D48008810B927
:100710001148008818B10E4800880728B4D000BFDF
:100720000D480088012806D009480088072802D112
:100730000220074908800648008807289CD010BD81
:100740002600002000003442000007431C00002067
:100750001A0000200000B4421800002070B50325E4
:100760005BE01E2422E0204603F0BCF9064601F0BF
:100770000FFC204603F0B6F9064601F027FC2046A0
:1007800003F0B0F9064601F043FC204603F0AAF955
:10079000064601F05BFC3C48008800F00CFE3B483C
:1007A0000088082800D003E0601CC4B2962CDADB75
:1007B00000BF36480088082800D033E0962422E0A5
:1007C000204603F08FF9064601F0E2FB204603F0D5
:1007D00089F9064601F0FAFB204603F083F9064644
:1007E00001F016FC204603F07DF9064601F02EFCD0
:1007F0002548008800F0DFFD24480088082800D044
:1008000003E0601EC4B21E2CDADC00BF1F48008863
:10081000082800D006E0681E85B21DB11B4800887C
:1008200008289ED000BF1E2422E0204603F05AF97B
:10083000064601F0ADFB204603F054F9064601F0F0
:10084000C5FB204603F04EF9064601F0E1FB2046C9
:1008500003F048F9064601F0F9FB0B48008800F068
:10086000AAFD0A480088082800D003E0601CC4B232
:100870005A2CDADB00BF05480088082802D1022084
:100880000249088070BD00001E0000201A000020F0
:1008900070B503253C2000F08EFD37E01E2410E0EB
:1008A000204603F01FF9064602F0D2FB1C480088E0
:1008B00000F081FD1B480088092800D003E0601C7F
:1008C000C4B2962CECDB00BF16480088092800D083
:1008D00021E0962410E0204603F004F9064602F0D9
:1008E000B7FB0F48008800F066FD0E480088092815
:1008F00000D003E0601EC4B21E2CECDC00BF09482F
:100900000088092800D006E0681E85B21DB10548A0
:1009100000880928C2D000BF3C2000F04CFD70BD0B
:100920001E0000201A00002010B597E002204E495A
:1009300008807CE04D4801F049FB4C4801F068FB21
:100940004B48008800F037FD4A480088042800D052
:1009500078E0494801F01CFB474801F077FB444828
:10096000008800F028FD43480088042800D069E092
:10097000424801F02BFB414801F04AFB3C4800880B
:1009800000F019FD3B480088042800D05AE03B489D
:1009900001F0FEFA394801F059FB3548008800F0B3
:1009A0000AFD34480088042800D04BE02F4801F0AD
:1009B000EFFA2E4801F04AFB2D48008800F0FBFCBE
:1009C0002C480088042800D03CE02B4801F0FEFAB7
:1009D000294801F01DFB2648008800F0ECFC254862
:1009E0000088042800D02DE0244801F0D1FA2348E3
:1009F00001F02CFB1E48008800F0DDFC1D4800883B
:100A0000042800D01EE01D4801F0E0FA1B4801F068
:100A1000FFFA1748008800F0CEFC1648008804282A
:100A200000D00FE010480088401E0F4908800E4893
:100A3000008810B91248008820B10E4800880428A8
:100A40003FF478AF00BF0E480088012806D009485F
:100A50000088042802D10220064908800548008841
:100A600004283FF463AF10BD26000020000034428C
:100A70001C0000201A000020000007430000B442C0
:100A80001800002010B597E002204E4908807CE055
:100A90004D4801F09BFA4C4801F0BAFA4B480088E7
:100AA00000F089FC4A480088052800D078E04948D1
:100AB00001F06EFA474801F0C9FA4448008800F096
:100AC0007AFC43480088052800D069E0424801F0DC
:100AD0007DFA414801F09CFA3C48008800F06BFC2C
:100AE0003B480088052800D05AE03B4801F050FA06
:100AF000394801F0ABFA3548008800F05CFC344816
:100B00000088052800D04BE02F4801F041FA2E481C
:100B100001F09CFA2D48008800F04DFC2C4800881C
:100B2000052800D03CE02B4801F050FA294801F09C
:100B30006FFA2648008800F03EFC2548008805280A
:100B400000D02DE0244801F023FA234801F07EFA7A
:100B50001E48008800F02FFC1D480088052800D0A2
:100B60001EE01D4801F032FA1B4801F051FA174807
:100B7000008800F020FC16480088052800D00FE00F
:100B800010480088401E0F4908800E48008810B9A0
:100B90001248008820B10E48008805283FF478AF3D
:100BA00000BF0E480088012806D0094800880528A3
:100BB00002D10220064908800548008805283FF434
:100BC00063AF10BD26000020000007431C0000207A
:100BD0001A000020000034420000B4421800002037
:100BE0002DE9F041012547E1681E85B202265A240D
:100BF00024E0C4F1B400C7B2204602F073FF80467F
:100C000001F0C6F9384602F06DFF804601F0DEF9CA
:100C1000204602F067FF804601F0FAF9384602F0FC
:100C200061FF804601F012FA96480088102800D033
:100C300006E0304600F0BFFB601EC4B21E2CD8DCBC
:100C400000BF1E2424E0C4F1B400C7B2204602F065
:100C500049FF804601F09CF9384602F043FF804688
:100C600001F0B4F9204602F03DFF804601F0D0F9D2
:100C7000384602F037FF804601F0E8F981480088E5
:100C8000102800D006E0304600F095FB601CC4B28E
:100C90005A2CD8DB00BF5A2421E0204602F022FF64
:100CA000074601F075F9204602F01CFF074601F0E7
:100CB0008DF9204602F016FF074601F0A9F92046FB
:100CC00002F010FF074601F0C1F96E4800881028B5
:100CD00000D006E0304600F06EFB601CC4B2962CDB
:100CE000DBDB00BF962421E0204602F0FBFE074636
:100CF00001F04EF9204602F0F5FE074601F066F9D4
:100D0000204602F0EFFE074601F082F9204602F08D
:100D1000E9FE074601F09AF95A480088102800D0E9
:100D200006E0304600F047FB601EC4B25A2CDBDC04
:100D300000BF5A2424E0C4F1B400C7B2204602F038
:100D4000D1FE804601F024F9384602F0CBFE804601
:100D500001F03CF9204602F0C5FE804601F058F94A
:100D6000384602F0BFFE804601F070F94548008821
:100D7000102800D006E0304600F01DFB601CC4B215
:100D8000962CD8DB00BF962424E0C4F1B400C7B28F
:100D9000204602F0A7FE804601F0FAF8384602F03D
:100DA000A1FE804601F012F9204602F09BFE80462B
:100DB00001F02EF9384602F095FE804601F046F922
:100DC00030480088102800D006E0304600F0F3FAE2
:100DD000601EC4B25A2CD8DC00BF5A2421E0204641
:100DE00002F080FE074601F0D3F8204602F07AFEBA
:100DF000074601F0EBF8204602F074FE074601F0CA
:100E000007F9204602F06EFE074601F01FF91D4863
:100E10000088102800D006E0304600F0CCFA601EB2
:100E2000C4B21E2CDBDC00BF1E2421E0204602F0F1
:100E300059FE074601F0ACF8204602F053FE074683
:100E400001F0C4F8204602F04DFE074601F0E0F83C
:100E5000204602F047FE074601F0F8F809480088EE
:100E6000102800D006E0304600F0A5FA601CC4B29D
:100E70005A2CDBDB00BF00BF002D7FF4B5AEBDE810
:100E8000F08100001A00002010B50B4801F080F836
:100E9000094801F09BF8502000F08DFA064801F057
:100EA000B7F8054801F0D2F804480078012802D1CB
:100EB00009200349088010BD0000A0412200002045
:100EC0001A00002010B5024801F080F810BD0000A3
:100ED0000000B4422DE9F041032557E0681E85B2B9
:100EE0000A261E2424E0C4F19600C7B2384602F058
:100EF000F9FD804601F04CF8204602F0F3FD8046F3
:100F000001F064F8384602F0EDFD804601F080F80B
:100F1000204602F0E7FD804601F098F81D48008861
:100F2000112800D006E0304600F045FA601CC4B23B
:100F3000962CD8DB00BF962424E0C4F19600C7B2FB
:100F4000384602F0CFFD804601F022F8204602F03C
:100F5000C9FD804601F03AF8384602F0C3FD8046EC
:100F600001F056F8204602F0BDFD804601F06EF813
:100F700008480088112800D006E0304600F01BFA2F
:100F8000601EC4B21E2CD8DC00BF00BF002DA5DC43
:100F9000BDE8F0811A0000202DE9F041052565E04B
:100FA000681E85B2344800F0F3FF334801F00EF8B4
:100FB000314801F02DF8304801F048F82F480088FA
:100FC000122800D054E0502000F0F5F95A2422E015
:100FD000C4F1B406204602F06DFD074600F0D8FFCC
:100FE000204602F067FD074600F0F0FF304602F0B1
:100FF00061FD074601F00CF8304602F05BFD074644
:1010000001F024F81D480088122800D005E00F20C8
:1010100000F0D1F9641E0A2CDADC00BF0A2422E0B9
:10102000C4F1B406204602F045FD074600F0B0FFCB
:10103000204602F03FFD074600F0C8FF304602F0B0
:1010400039FD074600F0E4FF304602F033FD074665
:1010500000F0FCFF09480088122800D005E00F20AE
:1010600000F0A9F9641C5A2CDADB00BF002D97DCD4
:1010700000BFBDE8F08100000000B4421A0000206B
:1010800010B5084800F084FF064800F09FFF50208C
:1010900000F091F9044800F0BBFF034800F0D6FFD0
:1010A00010BD00000000A0410000204310B50B4817
:1010B00000F06EFF094800F089FF502000F07BF936
:1010C000074800F0A5FF064800F0C0FF054800787B
:1010D000012802D109200449088010BD0000B44253
:1010E0000000A041220000201A00002070B53C48FA
:1010F00000F08EFF3A4800F0A9FF502000F05BF9A5
:101100005A2414E0204602F0D5FC054600F040FFCA
:10111000204602F0CFFC054600F058FF3148008819
:101120000E2800D005E00F2000F045F9641E0A2CBF
:10113000E8DC00BF0A2414E0204602F0BBFC0546B0
:1011400000F026FF204602F0B5FC054600F03EFF09
:10115000244800880E2800D005E00F2000F02BF96D
:10116000641C5A2CE8DB00BF5A2414E0204602F02D
:10117000A1FC054600F04CFF204602F09BFC054612
:1011800000F064FF174800880E2800D005E00F200B
:1011900000F011F9641CAA2CE8DB00BFAA2414E0BB
:1011A000204602F087FC054600F032FF204602F0A0
:1011B00081FC054600F04AFF0A4800880E2800D04E
:1011C00005E00F2000F0F7F8641E5A2CE8DC00BFA1
:1011D000044800880E2802D10F200249088070BD03
:1011E0000000B4421A00002010B5024800F0EEFEE4
:1011F00010BD00000000204110B50B4800F0C8FEF3
:10120000094800F0E3FE502000F0D5F8064800F051
:10121000FFFE054800F01AFF04480078012802D1BB
:1012200009200349088010BD0000B44222000020BC
:101230001A00002010B50B4800F0EAFE094800F043
:1012400005FF502000F0B7F8064800F0A1FE054861
:1012500000F0BCFE04480078012802D109200349AF
:10126000088010BD0000B442220000201A000020B7
:1012700000B587B00121042000F0EAFC01218803B9
:1012800000F0E6FC0121082000F0E2FC01218804C6
:1012900000F0CEFC18208DF81B004FF40070ADF864
:1012A000180003208DF81A0006A93D4800F02EF919
:1012B00048208DF81B004FF48060ADF81800032023
:1012C0008DF81A0006A9364800F020F918208DF88C
:1012D0001B004FF48060ADF8180003208DF81A0051
:1012E00006A9304800F012F948208DF81B004FF491
:1012F0000060ADF8180003208DF81A0006A92948EF
:1013000000F004F94FF4165002900020ADF81400DC
:101310000C20ADF812000020ADF81000ADF80E0062
:10132000ADF80C0002A9204801F01AFE02A91F48DE
:1013300001F016FE012240F225511B4801F0EAFDA2
:10134000012240F22551194801F0E4FD4FF4A0605C
:1013500000F0AAF925208DF8040001208DF807007F
:101360008DF805008DF8060001A800F065F927202A
:101370008DF8040001208DF8070002208DF805008B
:1013800001208DF8060001A800F056F90121064859
:1013900001F07DFD0121054801F079FD07B000BD98
:1013A00000080140000C01400038014000480040A6
:1013B00000BFFEE7704700B5034603E04FF47A70C4
:1013C00000F005F8181EA3F10103F7D100BD00EBF2
:1013D000C001C9004FF0E022516100219161052157
:1013E000116100BF4FF0E021096901F4803100294B
:1013F000F8D004214FF0E0221161704708B53B4856
:10140000008860B900F05AF9394840238022002151
:101410000090084600F076FA00F0F2FA64E03348F3
:10142000008801280CD100F049F93248402380227D
:1014300000210090084600F065FA00F0E1FA53E060
:101440002A48008802280CD100F038F92A484023A5
:10145000802200210090084600F054FA00F0D0FAF3
:1014600042E02248008803280CD100F027F92348E5
:101470004023802200210090084600F043FA00F04B
:10148000BFFA31E01948008804280CD100F016F9A1
:101490001B484023802200210090084600F032FAC9
:1014A00000F0AEFA20E01148008805280CD100F0C9
:1014B00005F914484023802200210090084600F0DE
:1014C00021FA00F09DFA0FE00848008806280BD1A9
:1014D00000F0F4F80C4840238022002100900846D8
:1014E00000F010FA00F08CFA08BD00002000002087
:1014F000D0580008D05C0008D0500008D054000834
:10150000D0600008D04C0008D04800082DE9F04118
:10151000024600250026002000230024002791F821
:1015200003C00CF00F0591F803C00CF0100CBCF1D7
:10153000000F03D091F802C04CEA050591F800C0F5
:10154000BCF1000F31D0146800202BE04FF0010CEB
:101550000CFA00F3B1F800C00CEA03069E4220D159
:1015600083004FF00F0C0CFA03F7BC4305FA03FCA1
:101570004CEA040491F803C0BCF1280F06D14FF0E7
:10158000010C0CFA00FCC2F814C00AE091F803C088
:10159000BCF1480F05D14FF0010C0CFA00FCC2F869
:1015A00010C0401C0828D1D31460B1F800C0BCF1B1
:1015B000FF0F34DD546800202EE000F1080C4FF0DE
:1015C000010808FA0CF3B1F800C00CEA03069E42C9
:1015D00021D183004FF00F0C0CFA03F7BC4305FA3E
:1015E00003FC4CEA040491F803C0BCF1280F05D1B8
:1015F00000F1080C08FA0CF8C2F8148091F803C046
:10160000BCF1480F07D100F1080C4FF0010808FAAF
:101610000CF8C2F81080401C0828CED35460BDE8F6
:10162000F0810AB1016100E04161704700BFFEE74F
:1016300000BFFEE77047000070B5002100230F22B5
:10164000C47804B3154C246804F4E064C4F5E06481
:10165000210AC1F10403CA40447804FA03F18478F2
:101660001440214309010E4C0678A155047804F07A
:101670001F050124AC4005786D11AD0005F1E02592
:10168000C5F8004109E0047804F01F050124AC40CE
:10169000044D0678761145F8264070BD0CED00E04B
:1016A00000E400E080E100E002490143024A1160E9
:1016B000704700000000FA050CED00E000200CE08F
:1016C000002106E00022064B03EBC0135A544A1CCB
:1016D000D1B28029F6DB421CD0B20828F0DB70477B
:1016E000680000202DE9F04304460D4616461F46CB
:1016F000284638E0224631E0002A2DDB7F2A2BDC09
:10170000002829DB3F2827DC4FEAE07C00EB5C7CEB
:101710004FEAEC0CDFF8588008EBCC1C1CF802C038
:1017200003464FEAE07800EB58784FEAE808A0EB70
:10173000C8094FF0010808FA09F82CEA080C01461C
:101740004FEAE07800EB58784FEAE808DFF820909D
:1017500009EBC81808F802C0511C0AB2A11991423D
:10176000CADC411C08B2E9198142C3DCBDE8F08340
:101770006800002038B5002406E0002500E06D1C5C
:10178000B5F57A7FFBD3641CB4F57A7FF5D30121DC
:10179000082000F05DFA14208DF8030003208DF876
:1017A00002004FF48070ADF8000069460848FFF76A
:1017B000ADFE4FF40070ADF8000069460448FFF735
:1017C000A5FE012000F030F9012000F039F938BD04
:1017D000000C014070B50546002411E08021214134
:1017E000294009B1012100E00021084600F028F954
:1017F000012000F019F9002000F016F9601CC4B2B5
:10180000082CEBDB012000F00FF9002000F00CF9B0
:1018100070BD10B5012000F013F9012000F004F9AB
:10182000002000F00DF9002000F0FEF810BD10B50A
:10183000002000F005F9012000F0F6F8012000F08A
:10184000FFF810BD10B5FFF795FFAE2000F004F9CA
:10185000D52000F001F9802000F0FEF8A82000F06B
:10186000FBF83F2000F0F8F8D32000F0F5F8002056
:1018700000F0F2F8402000F0EFF8A12000F0ECF8C2
:10188000C82000F0E9F8DA2000F0E6F8122000F0B5
:10189000E3F8812000F0E0F8CF2000F0DDF8D92057
:1018A00000F0DAF8F12000F0D7F8DB2000F0D4F8EF
:1018B000302000F0D1F8A42000F0CEF8A62000F0EF
:1018C000CBF88D2000F0C8F8142000F0C5F8AF2048
:1018D00000F0C2F8FFF7F2FE00F092F810BD70B50C
:1018E00005460C46A01CC4B245F0B00000F0B4F8A8
:1018F000102141EA141000F0AFF804F00F0000F0DE
:10190000ABF870BD2DE9FF4F80460E469146DDF8DD
:1019100034B0002500244A4631464046039BFFF779
:10192000E1FE00BF5EE0002558E008EB050000285E
:1019300052DB08EB05007F284EDC3046F11706EB42
:101940005171C9100FB2F11706EB5171C910A6EB16
:10195000C10A002E05DA781E07B20AF108000FFA54
:1019600080FA3819002817DB3819072814DC3819D1
:10197000224901EBC01008EB0501405C04FB095152
:101980001BF8011001FA0AF1084339191B4A02EB4E
:10199000C11108EB050288543819401C00281BDBD4
:1019A0003819401C072817DC3819401C134901EB73
:1019B000C01008EB0501405C04FB09511BF8011045
:1019C000CAF10802114108433919491C0B4A02EBBC
:1019D000C11108EB05028854681CC5B24D45A4DB53
:1019E000601CC4B20399481EC11700EB517101225B
:1019F00002EBE101A14296DCBDE8FF8F6800002008
:101A000010B500240BE000212046FFF768FF0549D0
:101A100001EBC410802100F02FF8601CC4B2082C28
:101A2000F1DB10BD6800002010B5044622464FF4DB
:101A300080710248FFF7F5FD10BD0000000C014069
:101A400010B5044622464FF400710248FFF7E9FD45
:101A500010BD0000000C014010B50446FFF7D9FE90
:101A60007820FFF7B7FE0020FFF7B4FE2046FFF70F
:101A7000B1FEFFF7DCFE10BD70B505460E46FFF760
:101A8000C8FE7820FFF7A6FE4020FFF7A3FE002443
:101A900004E0285DFFF79EFE601CC4B2B442F8DB90
:101AA000FFF7C5FE70BD000000B589B001210846F2
:101AB00000F0BEF80121022000F0BAF80121042054
:101AC00000F0C6F80121082000F0C2F818208DF8B7
:101AD0002300C120ADF8200003208DF8220008A9C2
:101AE0003748FFF713FD18208DF823000320ADF8C9
:101AF00020008DF8220008A93248FFF707FD4FF0BB
:101B0000804000F0A6FB304800F0A3FB0020ADF8B9
:101B10001A00ADF8160044F61F60ADF81800472013
:101B2000ADF8140000208DF81C0005A94FF080408E
:101B300000F0D6FC05A9244800F0D2FC1D208DF849
:101B4000100001208DF8130000208DF811008DF891
:101B5000120004A8FFF770FD012211461A4800F098
:101B60006FFB684600F0A8FC6020ADF80000002084
:101B7000ADF808000120ADF802000020ADF8060025
:101B80006946114800F06CFB69460F4800F0B4FB51
:101B900069460D4800F002FC69460B4800F04EFC17
:101BA00069464FF0804000F05BFB0121880700F0A0
:101BB0002AFB0121044800F026FB09B000BD00000B
:101BC00000080140000C01400004004010B504462C
:101BD0002146024800F07AFC10BD000000040040DD
:101BE00010B504462146024800F072FC10BD00000A
:101BF0000004004010B504462146024800F06AFC8B
:101C000010BD00000004004010B504462146024803
:101C100000F062FC10BD00000004004010B5044656
:101C200021464FF0804000F051FC10BD704700008D
:101C300029B1064AD2690243044BDA6104E0034A3F
:101C4000D2698243014BDA61704700000010024004
:101C500029B1064A92690243044B9A6104E0034A9F
:101C600092698243014B9A61704700000010024064
:101C700030B500210022002400232D4D6D6805F0B1
:101C80000C0121B1042905D0082923D105E0294DF3
:101C9000056022E0274D05601FE0254D6D6805F4C5
:101CA0007012234D6D6805F48034022505EB9242D5
:101CB0001CB9214D554305600BE01D4D6D6805F4C1
:101CC00000351DB11C4D5543056002E0194D5543CB
:101CD000056002E0174D056000BF00BF144D6D6840
:101CE00005F0F0010909154D6B5C0568DD404560A4
:101CF0000F4D6D6805F4E061090A104D6B5C456895
:101D0000DD4085600A4D6D6805F46051C90A0B4DD0
:101D10006B5C4568DD40C560054D6D6805F440416C
:101D2000890B074D6B5CC568B5FBF3F5056130BDEC
:101D30000010024000127A0000093D00000000205F
:101D400010000020704770B504460E4615460CB1D1
:101D500006B10DB9002070BDB4F89400A84201DAB4
:101D60000020F8E7012001F091F900200FE0B4F81D
:101D70009010615C3154B4F89010491C902291FB92
:101D8000F2F302FB1311A4F89010411C88B2A84290
:101D9000EDDBB4F89400401BA4F89400002001F09F
:101DA00075F90120D7E770B504460E4615460CB10B
:101DB00006B10DB9002070BDB4F8940028449028F5
:101DC00001DD0020F7E7012001F060F900200FE0BD
:101DD000315CB4F89220A154B4F89210491C9022BE
:101DE00091FBF2F302FB1311A4F89210411C88B28C
:101DF000A842EDDBB4F894002844A4F89400002035
:101E000001F044F90120D6E700B585B0012148046E
:101E1000FFF70EFF01210420FFF71AFF18208DF8AD
:101E200013000420ADF8100003208DF8120004A95F
:101E30001448FFF76BFB48208DF813000820ADF81D
:101E4000100004A90F48FFF761FB4FF416500090F3
:101E50000020ADF80C000820ADF80A000020ADF815
:101E60000800ADF80600ADF804006946064801F028
:101E700077F80121044801F00AF8044800F042F81C
:101E800005B000BD00080140004400406804002087
:101E900008B529E0012269461748FFF754FF10B33F
:101EA000272000F01F0201219140144A430942F803
:101EB000231000BF9DF80010114801F0C2F800BFC8
:101EC00080210F4800F0EFFF0028F9D0272000F014
:101ED0001F02012191404209920002F1E022C2F862
:101EE000001100BF00E004E0034800F012F80028F1
:101EF000D0D000BF08BD00006804002080E100E0F1
:101F000000440040002120F8901F418081809038DB
:101F100070470146B1F8940008B9012070470020CD
:101F2000FCE7000010B504462146054801F089F899
:101F300000BF8021024800F0B6FF0028F9D010BD94
:101F40000044004010B5082202490348FFF72BFF68
:101F500010BD0000520000206804002010B50446A7
:101F6000012001F093F8002007E0074901EBC401CC
:101F7000095C064A1154411CC8B20828F5DB002050
:101F800001F084F810BD0000A23D000852000020BE
:101F90002DE9F04104460A49204601F0A9FC80469B
:101FA000084901F0B3FD0746074901F03FFC06462A
:101FB00001F060FD85B22846FFF708FEBDE8F0811C
:101FC000000034430000FA440000FA432DE9F047D2
:101FD00004460C49204601F065FE8146094901F09E
:101FE00087FC8046084901F091FD0746074901F04A
:101FF0001DFC064601F03EFD85B22846FFF7F0FDC8
:10200000BDE8F087000034430000FA440000FA43C2
:102010002DE9F04104460A49204601F069FC80465A
:10202000084901F073FD0746074901F0FFFB06462A
:1020300001F020FD85B22846FFF7DCFDBDE8F08108
:10204000000034430000FA440000FA432DE9F04751
:1020500004460C49204601F025FE8146094901F05D
:1020600047FC8046084901F051FD0746074901F049
:10207000DDFB064601F0FEFC85B22846FFF7C4FDF5
:10208000BDE8F087000034430000FA440000FA4342
:1020900010B5FFF709FD10BD10B500F001F810BD37
:1020A0000CB50020019000903348006840F4803067
:1020B0003149086000BF3048006800F400300090EB
:1020C0000198401C0190009818B90198B0F5A06FD4
:1020D000F1D12948006800F4003010B101200090CF
:1020E00001E0002000900098012843D123480068B7
:1020F00040F01000214908600846006820F0030005
:1021000008600846006840F0020008601A4840680D
:10211000194948600846406848600846406840F4ED
:10212000806048600846406820F47C10486008469B
:10213000406840F4E81048600846006840F080704D
:10214000086000BF0C48006800F000700028F9D05B
:102150000948406820F00300074948600846406885
:1021600040F00200486000BF0348406800F00C00E7
:102170000828F9D10CBD00000010024000200240E8
:102180007047000010B51348006840F00100114985
:10219000086008464068104908400E4948600846F3
:1021A00000680E4908400B4908600846006820F4A2
:1021B000802008600846406820F4FE0048604FF424
:1021C0001F008860FFF768FF4FF000600449086057
:1021D00010BD0000001002400000FFF8FFFFF6FEF7
:1021E00008ED00E010B50121044800F018F80128BE
:1021F00003D10121014800F003F810BD00040040A4
:10220000CA430282704721B1028842F00102028073
:1022100004E002884FF6FE731A400280704730B522
:102220000246002000230024158A05EA010395894F
:1022300005EA010413B10CB1012000E0002030BD1B
:102240001AB183890B43838102E083898B438381A5
:10225000704701894FF6F872114001817047000004
:1022600070B5002400220023058C4FF6FE76354021
:102270000584028C8388048B4FF68F752C40B51E25
:102280002C400D882C43751E2A400D892A434D8809
:102290002A43144DA8420BD0134DA84208D0134D29
:1022A000A84205D0124DA84202D0124DA84213D127
:1022B0004FF6F7752A404D892A434FF6FB752A40A1
:1022C0008D882A434FF6FF652B404FF6FF552B4074
:1022D0008D892B43CD892B4383800483CD888586CC
:1022E000028470BD002C01400034014000400140D8
:1022F000004401400048014070B500240022002342
:10230000058C4FF6EF7635400584028C8388048B6C
:1023100048F6FF752C404FF6FF452C400D884FF6D0
:10232000FF7606EA05252C434FF6DF752A400D8916
:1023300006EA05152A434D8806EA05152A43154D78
:10234000A84202D0144DA8421DD14FF67F752A40F5
:102350004D894FF6FF7606EA05152A434FF6BF75FD
:102360002A408D8806EA05152A434FF6FF352B4093
:102370004FF2FF752B408D8906EA85052B43CD89E9
:1023800006EA85052B4383800483CD880587028474
:1023900070BD0000002C01400034014070B50024E5
:1023A00000220023058C4FF6FF6635400584028C21
:1023B0008388848B4FF68F752C404FF6FC752C402C
:1023C0000D882C434FF6FF552A400D894FF6FF76B6
:1023D00006EA05252A434D8806EA05252A43154DB8
:1023E000A84202D0144DA8421DD14FF2FF752A40D9
:1023F0004D894FF6FF7606EA05252A434FF6FF354D
:102400002A408D8806EA05252A434EF6FF752B40A3
:102410004DF6FF752B408D8906EA05152B43CD89B6
:1024200006EA05152B4383808483CD888587028443
:1024300070BD0000002C01400034014070B5002246
:1024400000230024058C4EF6FF7635400584038C6E
:102450008488828B48F6FF752A404FF6FF452A4054
:102460000D884FF6FF7606EA05252A434DF6FF75DF
:102470002B400D8906EA05352B434D8806EA0535C4
:102480002B430B4DA84202D00A4DA84208D14BF66F
:10249000FF752C408D894FF6FF7606EA85152C4393
:1024A00084808283CD88A0F84050038470BD0000F2
:1024B000002C0140003401400021018041808180D6
:1024C000C180018141818181C181704781867047CE
:1024D0000187704781877047A0F84010704700005F
:1024E000002202881D4B98420ED01D4B98420BD003
:1024F000B0F1804F08D01B4B984205D01A4B984240
:1025000002D01A4B984204D14FF68F731A404B8871
:102510001A43174B984207D0164B984204D04FF6F7
:10252000FF431A40CB881A4302808B8883850B882F
:1025300003850A4B98420BD0094B984208D00E4BAA
:10254000984205D00D4B984202D00D4B984201D1D4
:102550000B7A03860123838270470000002C014020
:10256000003401400004004000080040000C00401E
:1025700000100040001400400040014000440140B1
:102580000048014010B540F22551FD4800F098FC8C
:1025900001287AD1FA4800F04FFDFA49087001206D
:1025A000F94908700020F9490880F54800F044FD19
:1025B000292808D10020F6490880FEF71FFF0020D7
:1025C000F449088099E2EE4800F036FD302808D141
:1025D0000120EF490880FEF711FF0120ED49088036
:1025E0008BE2E74800F028FD312808D10520E849B2
:1025F0000880FEF703FF0220E64908807DE2E048FC
:1026000000F01AFD322808D10120E1490880FEF7C8
:10261000F5FE0320DF4908806FE2D94800F00CFD89
:10262000332808D10220DA490880FEF7E7FE0420AB
:10263000D849088061E2D24800F0FEFC342808D175
:102640000220D3490880FEF7D9FE0520D149088031
:1026500053E2CB4800F0F0FC352808D10220CC49E9
:102660000880FEF7CBFE0620CA49088045E2C44830
:1026700000F0E2FC362809D10220C5490880FEF7A7
:10268000BDFE0720C349088037E23BE2BC4800F0AA
:10269000D3FC372808D10420BD490880FEF7AEFEE0
:1026A0000820BC49088028E2B54800F0C5FC38285D
:1026B0001BD1B9480088782804D10320B449088088
:1026C000FEF79CFEB4480088642805DDB248008807
:1026D0001438B149088010E20220AD490880FEF7A5
:1026E0008DFEC820AC49088007E2A54800F0A4FC94
:1026F00039281BD1A9480088042804D10320A44903
:102700000880FEF77BFEA5480088032805DDA34866
:102710000088401EA1490880EFE104209C49088000
:10272000FEF76CFE09209D490880E6E1944800F020
:1027300083FC402812D19A48007818B901209849A2
:10274000087002E000209649087001209049088036
:10275000FEF754FE09208F490880CEE1884800F03A
:102760006BFC412808D1022089490880FEF746FE0B
:102770000A2088490880C0E1814800F05DFC4228B9
:1027800008D1022082490880FEF738FE0B208149DB
:102790000880B2E17A4800F04FFC432808D10620B7
:1027A0007B490880FEF72AFE0D207A490880A4E1C3
:1027B000734800F041FC442803D101207949088086
:1027C0009BE16F4800F038FC452803D10020754993
:1027D000088092E16A4800F02FFC462803D10120CE
:1027E0007149088089E1664800F026FC472803D13A
:1027F00000206D49088080E1614800F01DFC4828F8
:1028000008D1062062490880FEF7F8FD0E206149D4
:10281000088072E15A4800F00FFC492808D10620D0
:102820005B490880FEF7EAFD0F205A49088064E101
:10283000534800F001FC502808D106205449088074
:10284000FEF7DCFD10205349088056E14C4800F0AB
:10285000F3FB512808D106204D490880FEF7CEFD34
:1028600011204C49088048E1454800F0E5FB52281A
:1028700008D1062046490880FEF7C0FD12204549D0
:1028800008803AE13E4800F0D7FB532808D10620E3
:102890003F490880FEF7B2FD13203E4908802CE135
:1028A000374800F0C9FB542808D106203849088071
:1028B000FEF7A4FD1420374908801EE1304800F0DF
:1028C000BBFB602808D1062031490880FEF796FD41
:1028D00015203049088010E1294800F0ADFB61283F
:1028E00008D106202A490880FEF788FD16202949CC
:1028F000088002E1224800F09FFB622808D10620F0
:1029000023490880FEF77AFD172022490880F4E069
:102910001B4800F091FB632808D106201C49088061
:10292000FEF76CFD18201B490880E6E0144800F013
:1029300083FB642808D1062015490880FEF75EFD58
:10294000192014490880D8E00D4800F075FB65286F
:1029500008D106200E490880FEF750FD1A200D49C7
:102960000880CAE0064800F067FB66281ED10620F2
:1029700007490880FEF742FD1B2006490880BCE09D
:10298000003801402400002023000020180000200F
:10299000200000201A0000201C0000201E00002043
:1029A000220000201400002016000020564800F0ED
:1029B00043FB672808D1062054490880FEF71EFD16
:1029C0001C205349088098E04F4800F035FB6828E8
:1029D00008D106204D490880FEF710FD1D204C4906
:1029E00008808AE0484800F027FB692808D10620C3
:1029F00046490880FEF702FD1E20454908807CE01C
:102A0000414800F019FB702808D106203F49088092
:102A1000FEF7F4FC1F203E4908806EE03A4800F0C3
:102A20000BFB712808D1062038490880FEF7E6FC28
:102A300020203749088060E0334800F0FDFA722812
:102A400008D1062031490880FEF7D8FC2120304902
:102A5000088052E02C4800F0EFFA732808D10620D5
:102A60002A490880FEF7CAFC22202949088044E050
:102A7000254800F0E1FA742808D10620234908808F
:102A8000FEF7BCFC23202249088036E01E4800F0F7
:102A9000D3FA752808D106201C490880FEF7AEFC41
:102AA00024201B49088028E0174800F0C5FA762842
:102AB00008D1062015490880FEF7A0FC25201449FE
:102AC00008801AE0104800F0B7FA772808D10620ED
:102AD0000E490880FEF792FC26200D4908800CE084
:102AE000094800F0A9FA782807D10620074908808C
:102AF000FEF784FC27200649088040F22551024851
:102B000000F0B6F910BD00000038014020000020A0
:102B10001A00002010B540F225511E4800F0D0F9EF
:102B2000012836D11B4800F087FAC4B21A48007851
:102B300040B9FF2C27D10120174908700020174900
:102B4000087020E014480078012810D11448134977
:102B50000978445411480078401C10490870084610
:102B6000007804280FDB02200B4908700BE00A48AC
:102B70000078022807D1FE2C05D1002006490870F4
:102B800001200849087040F22551024800F070F910
:102B900000BF10BD0044004063000020640000201E
:102BA0005A0000206200002010B540F22551A748CD
:102BB00000F086F9012871D1A5490880A34800F0EA
:102BC0003BFA292808D10020A2490880FEF716FC0C
:102BD0000020A149088033E19C4800F02DFA3028FC
:102BE00008D101209B490880FEF708FC01209A4982
:102BF000088025E1954800F01FFA312808D105200A
:102C000094490880FEF7FAFB02209349088017E1F7
:102C10008E4800F011FA322808D101208D49088031
:102C2000FEF7ECFB03208C49088009E1874800F09F
:102C300003FA332808D1022086490880FEF7DEFB1C
:102C4000042085490880FBE0804800F0F5F934282D
:102C500008D102207F490880FEF7D0FB05207E497D
:102C60000880EDE0794800F0E7F9352808D1022026
:102C700078490880FEF7C2FB062077490880DFE02C
:102C8000724800F0D9F9362809D10220714908802C
:102C9000FEF7B4FB072070490880D1E0D5E06B480F
:102CA00000F0CAF9372808D104206A490880FEF7E5
:102CB000A5FB082068490880C2E0644800F0BCF920
:102CC00038281BD165480088782804D10320614941
:102CD0000880FEF793FB61480088642805DD5F48A3
:102CE000008814385D490880AAE00220594908800C
:102CF000FEF784FBC82059490880A1E0534800F042
:102D00009BF939281BD156480088042804D1032098
:102D100050490880FEF772FB51480088032805DD02
:102D20004F480088401E4E49088089E004204949E8
:102D30000880FEF763FB09204949088080E043488A
:102D400000F07AF9402812D14648007818B90120DD
:102D50004449087002E000204249087001203D49C2
:102D60000880FEF74BFB09203B49088068E03748A4
:102D700000F062F9412808D1022036490880FEF7A8
:102D80003DFB0A20344908805AE0304800F054F9ED
:102D9000422808D102202F490880FEF72FFB0B2084
:102DA0002D4908804CE0294800F046F9432808D115
:102DB000062028490880FEF721FB0D2026490880BF
:102DC0003EE0224800F038F9442803D1012026498A
:102DD000088035E01D4800F02FF9452803D1002078
:102DE000214908802CE0194800F026F9462803D133
:102DF00001201E49088023E0144800F01DF94728EF
:102E000003D10020194908801AE0104800F014F995
:102E1000482808D106200F490880FEF7EFFA0E2057
:102E20000D4908800CE0094800F006F9492807D14F
:102E3000062008490880FEF7E1FA0F2006490880BD
:102E400040F22551014800F013F810BD0048004041
:102E500018000020200000201A0000201C00002084
:102E60001E00002022000020140000201600002078
:102E700010B50022002340F66A14A14200D100BF21
:102E80000A1201249440A3B2DC43048010BD21B196
:102E9000828942F40052828104E082894DF6FF73F8
:102EA0001A408281704702460020B1F5007F00D1B0
:102EB00000BF13880B400BB1012000E000207047D9
:102EC00070B50246002400230025002040F66A1653
:102ED000B14200D100BFC1F3421501F01F0301262A
:102EE00006FA03F3012D02D19689334006E0022D44
:102EF00002D1168A334001E0968A33400C12012633
:102F000006FA04F41688344013B10CB1012000E035
:102F1000002070BDF0B503460024002600250020E7
:102F200040F66A17B94200D100BF1846C1F34214F7
:102F300001F01F06012707FA06F5012C01D10C301C
:102F400004E0022C01D1103000E014301AB10768FF
:102F50002F43076002E00768AF430760F0BD000041
:102F60002DE9F04786B005460E460024A24600BF74
:102F7000A1460027B08900B100BF2F462C8A4CF62D
:102F8000FF700440F08804432C82AC894EF6F310A5
:102F90000440B08831890843718908430443AC81F7
:102FA000AC8A4FF6FF400440B0890443AC8201A8CC
:102FB000FEF75EFE1F48874202D1DDF810A001E057
:102FC000DDF80CA0A88900F4004040B10AEBCA006B
:102FD00000EB0A1031684900B0FBF1F807E00AEB9A
:102FE000CA0000EB0A1031688900B0FBF1F86420D8
:102FF000B8FBF0F004012009642101FB1089A889C5
:1030000000F4004040B1322000EBC900B0FBF1F009
:1030100000F00700044308E0322000EB09106421AF
:10302000B0FBF1F000F00F0004432C8106B0BDE8C6
:10303000F08700000038014001468888C0F308008E
:103040007047C1F308028280704700BFFEE70000AE
:103050002DE9F04104460A49204600F049FC80462B
:10306000084900F053FD0746074900F0DFFB06461C
:1030700000F000FD85B22846FEF7D0FDBDE8F081E6
:10308000000034430000FA440000FA4380F3108843
:103090007047000008B5FEF7FBFFFEF7D3FBFEF715
:1030A000B3FEFEF7E5F89A48402380220021009005
:1030B0000846FEF727FCFEF7A3FCFEF79DF8AA20C2
:1030C000FEF730FF23E19348008828B9FDF7D8FFC9
:1030D0009148FFF7BDFF0FE18E480088012802D11B
:1030E000FDF7E4FF08E18B480088022802D1FEF7D3
:1030F00083F801E187480088032802D1FDF7C4FE68
:10310000FAE084480088042802D1FDF70DFCF3E0C2
:1031100080480088052802D1FDF7B4FCECE07D482A
:103120000088062802D1FDF775F9E5E079480088A6
:10313000072802D1FDF79EFADEE0764800880828CD
:1031400002D1FDF70BFBD7E072480088092802D1B5
:10315000FDF79EFBD0E06F4800880A2802D1FDF7FA
:1031600013F9C9E06B4800880B2802D1FDF7C8F8B5
:10317000C2E0684800880C2802D1FEF75BF8BBE08B
:10318000644800880D2802D1FDF75CF8B4E061487E
:1031900000880E2802D1FDF7A9FFADE05D48008848
:1031A0000F2802D1FDF7AAF9A6E05A480088102896
:1031B00002D1FDF715FD9FE056480088112802D185
:1031C000FDF788FE98E053480088122802D1FDF7E9
:1031D000E3FE91E04F480088132802D1FEF704F87F
:1031E0008AE04C480088142802D1FDF76BFE83E08A
:1031F00048480088152802D100F0E6F97CE04548EF
:103200000088172802D100F011F975E041480088C4
:10321000162802D100F02CF96EE03E4800881828EC
:1032200002D100F037FA67E03A480088192802D145
:1032300000F052FA60E0374800881A2802D100F006
:10324000D3F859E0334800881B2802D100F0AAF8CF
:1032500052E0304800881C2802D100F0C5FA4BE04B
:103260002C4800881D2802D100F09CFA44E029482F
:1032700000881E2802D100F0EBF93DE025480088C7
:103280001F2802D100F0C2F936E022480088202829
:1032900002D100F00FF92FE01E480088212802D14A
:1032A00000F03CF828E01B480088222802D100F0FA
:1032B00057F821E017480088232802D100F062F96E
:1032C0001AE014480088242802D100F015F913E010
:1032D00010480088252802D100F030F90CE00D4894
:1032E0000088262802D100F03BFA05E00948008852
:1032F000272801D100F012FA3820FEF72FFEFEF742
:1033000021FEFEF7C5FD4FF47A70FEF754F8DAE6B9
:10331000D05800081A0000200000B44210B50D4833
:103320000078012804D10C49088000200949087060
:103330000A48008821280CD107480088012808D1B4
:103340000C20FEF70BFE00200349088002200349F1
:10335000088010BD23000020440000201A00002037
:1033600010B50D480078012804D10C4908800020D0
:10337000094908700A48008822280CD107480088AB
:10338000012808D10D20FEF7E9FD0020034908803F
:1033900002200349088010BD2300002046000020C1
:1033A0001A00002010B50D480078012804D10C49FE
:1033B00008800020094908700A4800881B280CD1A1
:1033C00007480088012808D10620FEF7C7FD002025
:1033D0000349088002200349088010BD2300002013
:1033E000380000201A00002010B50D480078012890
:1033F00004D10C4908800020094908700A48008857
:103400001A280CD107480088012808D10520FEF7AA
:10341000A5FD00200349088002200349088010BD53
:1034200023000020360000201A00002010B50D48AF
:103430000078012804D10C4908800020094908704F
:103440000A48008817280CD107480088012808D1AD
:103450000220FEF783FD0020034908800220034973
:10346000088010BD23000020300000201A0000203A
:1034700010B50D480078012804D10C4908800020BF
:10348000094908700A48008816280BD107480088A7
:10349000012807D1FEF762FD0020044908800220C0
:1034A0000349088010BD0000230000202E000020EA
:1034B0001A00002010B50D480078012804D10C49ED
:1034C00008800020094908700A48008820280CD18B
:1034D00007480088012808D10B20FEF73FFD002097
:1034E0000349088002200349088010BD2300002002
:1034F000420000201A00002010B50D480078012875
:1035000004D10C4908800020094908700A48008845
:1035100024280CD107480088012808D13720FEF75D
:103520001DFD00200349088002200349088010BDCA
:10353000230000204A0000201A00002010B50E4889
:103540000078012804D10D49088000200A4908703C
:103550000B48008825280ED10848008801280AD188
:103560003820FEF7FBFCFEF7EDFC00200349088045
:1035700002200349088010BD230000204C000020D9
:103580001A00002010B50D480078012804D10C491C
:1035900008800020094908700A48008823280CD1B7
:1035A00007480088012808D13620FEF7D7FC002004
:1035B0000349088002200349088010BD2300002031
:1035C000480000201A00002010B50D48007801289E
:1035D00004D10C4908800020094908700A48008875
:1035E00015280CD107480088012808D10020FEF7D3
:1035F000B5FC00200349088002200349088010BD63
:10360000230000202C0000201A00002010B50D48D7
:103610000078012804D10C4908800020094908706D
:103620000A4800881F280CD107480088012808D1C3
:103630000A20FEF793FC002003490880022003497A
:10364000088010BD23000020400000201A00002048
:1036500010B50D480078012804D10C4908800020DD
:10366000094908700A4800881E280CD107480088BC
:10367000012808D10920FEF771FC002003490880C9
:1036800002200349088010BD230000203E000020D6
:103690001A00002010B50D480078012804D10C490B
:1036A00008800020094908700A48008818280CD1B1
:1036B00007480088012808D10320FEF74FFC0020AE
:1036C0000349088002200349088010BD2300002020
:1036D000320000201A00002010B50D4800780128A3
:1036E00004D10C4908800020094908700A48008864
:1036F00019280CD107480088012808D10420FEF7BA
:103700002DFC00200349088002200349088010BDD9
:1037100023000020340000201A00002010B50D48BE
:103720000078012804D10C4908800020094908705C
:103730000A48008827280CD107480088012808D1AA
:103740003C20FEF70BFC00200349088002200349BF
:10375000088010BD23000020500000201A00002027
:1037600010B50D480078012804D10C4908800020CC
:10377000094908700A48008826280CD107480088A3
:10378000012808D13B20FEF7E9FB0020034908800F
:1037900002200349088010BD230000204E000020B5
:1037A0001A00002010B50D480078012804D10C49FA
:1037B00008800020094908700A4800881D280CD19B
:1037C00007480088012808D13A20FEF7C7FB0020EF
:1037D0000349088002200349088010BD230000200F
:1037E0003C0000201A00002010B50D480078012888
:1037F00004D10C4908800020094908700A48008853
:103800001C280CD107480088012808D13920FEF770
:10381000A5FB00200349088002200349088010BD51
:10382000230000203A0000201A00002090EA010F37
:1038300048BF81F0004100F14682421A3CBF801A25
:1038400089184FEAD0524FF07F4C1CEA410FA2EB8F
:10385000D15318BF9CEA026F00F03B804FF0004C40
:103860004CEA00204CEA012121FA03FC10EB0C0C7D
:103870001ED202F1FF325FEA1C2040EBC25038BF7B
:1038800070471CF07F0F4FEA400C18BFBCF17F4F10
:1038900038BF7047C3F12003994008BF20F00100F2
:1038A000BCF17F4F38BF7047A0F1C04000F0F5B9C0
:1038B0004FEA3C00000A40EBC25028BF1CF0FF0F4B
:1038C0004FEA400CE6D018BFBCF17F4F38BF7047BD
:1038D000EAE79CEA026F05D010EA5C0F08BF00F02F
:1038E0000040704710B500F092F900BF64FBBE3E87
:1038F0004FF47F0C1CEAD0121EBF1CEAD11392EACF
:103900000C0F93EA0C0F00F0858090EA010F48BF7E
:1039100042F4807240F4000C41F400002CF07F412E
:1039200020F07F4000B58142A2EB03020FF2081C99
:10393000ACEB504EC0F100009EF800E04FEA4E0E96
:1039400000FB0EFC38BF49004FEA2C1C02F5FA02BE
:103950000CFB0EF34FEACE1E4FEA112C4FEAC121A9
:103960000EEB635E42EB22420EFB0CFC4FEA1C5353
:1039700000FB03114FEA112C4FEA01310EFB0CFC46
:103980004FEADC4C00FB0C11C14228BF09184CEB7C
:1039900003335DF804EB10EB410143EBC250B2F589
:1039A0007C0F38BF704729D512F0F00F1CBF00F113
:1039B000C04000F000407047008182838485868784
:1039C00088898B8C8D8E8F919293959697999A9CDE
:1039D0009D9FA0A2A3A5A7A8AAACAEB0B2B3B5B74D
:1039E000B9BCBEC0C2C5C7C9CCCED1D4D7D9DCDF23
:1039F000E2E6E9ECF0F3F7FAFE0000004FEA400CD3
:103A00000CF1807CBCF17E4F28BF7047B0F1C04004
:103A100000F043B990EA010F0CEAD11348BF42F419
:103A20008072624538BF634507D213F47F0F16D00A
:103A300080EA010000F00040704710B500F0E7F8A0
:103A4000097EFC3E00F005B880EA010000F000406D
:103A5000704780EA010000F0004000F01EB912F447
:103A60007F0F04BF0248704780EA010000F015B9DB
:103A70000000C07FC10DD1F19E0206DB4FEA00239A
:103A800043F0004323FA02F07047004207D54FEAA3
:103A90004001B1F1FE4F02D24FF00000704710B567
:103AA00000F0B5F849922480002070476FEA2000AA
:103AB0007047000010F0004148BF4042B0FA80F368
:103AC00010FA03F2C3F19D030BD051EAC35101EB8D
:103AD0001220530638BF704700F1010008BF20F0E4
:103AE00001007047B0FA80F310FA03F2C3F19D03AE
:103AF0000AD0D90501EB1220530638BF704700F1F8
:103B0000010008BF20F00100704700004FF47F0C57
:103B10001CEAD0121EBF1CEAD11392EA0C0F93EAE2
:103B20000C0F00F0478090EA010F48BF42F480720A
:103B30004FF0004C4CEA00204CEA012102EB03025A
:103B4000A0FB0113A2F50002002918BF43F00103F6
:103B50005B0028BF4FEA330342EB22425FEA132C9B
:103B60004CEBC2502EBFBCEB436FB2F57C0F7047DD
:103B70004FEA036CBCF1004F08BF20F00100B2F522
:103B80007C0F38BF70470BD582F0FF0212F5803FE3
:103B9000C8BF704700F1C040D8BF00F00040704778
:103BA00000F5000C5FEA4C0C48BF7047B0F1C04014
:103BB00000F073B890EA010F0CEAD11348BF42F449
:103BC0008072624538BF634504D280EA010000F08C
:103BD0000040704710B500F01AF800BF8900013EA0
:103BE00000F007B800F009B85FEA410C5FEA1C6C0E
:103BF00008D080EA010000F050B85FEA400C5FEAAC
:103C00001C6CF6D14FF00040A0F5800070470EF11B
:103C1000020E2EF0030E5EF8044B244204D44FEA49
:103C20004102B2F17F4F11D84FEA4003B3F17F4F09
:103C30000CD80ED14FEAD07CB2F17F4F0CEB4C0C7C
:103C40000CF1020C08BF4CEBD17C04E04FF0080CE7
:103C500001E04FEAD17C0CEB4C0324FA03F404F0AE
:103C60000704B4F1040C06D20EEB840CBDE810403E
:103C70004CF0010C6047DFE80CF0070802024FF03F
:103C80000040A0F5800010BD0846420018BFD2F1E8
:103C9000807288BF00F0004010BDFF2141EAD05083
:103CA000C005704780F0004090EA010F7FF5C5AD78
:103CB00081F0004100F007B890EA010F48BF81F0A1
:103CC00000413FF5BAAD421A04D882F00042A0EBA1
:103CD000020011444FEAD0524FF07F4C1CEA410FD2
:103CE000A2EBD15318BF9CEA026F4AD04FF0004CB0
:103CF0004CEA00204CEA012121FA03FCB0EB0C0C49
:103D00000FD412F0FE0F36D05FEA4C001DD5001222
:103D100040EBC25038BF70471CF03F0F18BF7047D0
:103D20000BE0A2F101025FEA1C2040EBC25038BF59
:103D300070471CF07F0F18BF7047C3F120039940F4
:103D400014BF401E20F00100704780084FEA122384
:103D500008BF7047B0FA80FCA2EB0C02CCF1280C33
:103D600060FA0CF093EA122F04BF00EBC2507047C8
:103D70004FEAC3707047130A5FEADC1008BF704750
:103D8000F6E79CEA026F04D010EA5C0F08BF00203F
:103D9000704710B5FFF73BFF40DFF63E81F0004073
:103DA00070477EFF0618000000EF7EFF0619000036
:103DB00001EF7EFF0619000000EF7EFF06110000F4
:103DC00001EF7EFF0611000000EF7EFF06010000FC
:103DD00000EF7EFF0602000000EF7EFF06040000F9
:103DE00000EF7EFF0605000000EF7EFF06160000D4
:103DF00000EF7EFF060D000000EF7EFF060E0000C4
:103E000000EF7EFF0611000001EF7EFF06110000AB
:103E100000EF7EFF060F000101EF7EFF060F00019D
:103E200002EF7EFF060F000103EF7EFF060F000189
:103E300004EF7EFF060F000105EF7EFF060F000175
:103E400006EF7EFF060F000107EF7EFF060F000161
:103E500008EF7EFF060F000109EF7EFF060F00014D
:103E600010EF7EFF060F000201EF7EFF060F00023B
:103E700002EF7EFF060F000203EF7EFF060F000237
:103E800004EF7EFF060F000205EF7EFF060F000223
:103E900006EF7EFF060F000207EF7EFF060F00020F
:103EA00008EF7EFF060F000209EF7EFF060F0002FB
:103EB00010EF7EFF060F000301EF7EFF060F0003E9
:103EC00002EF7EFF060F000303EF7EFF060F0003E5
:103ED00004EF7EFF060F000305EF7EFF060F0003D1
:103EE00006EF7EFF060F000307EF7EFF060F0003BD
:103EF00008EF7EFF060F000309EF7EFF060F0003A9
:103F000010EF7EFF060F000401EF7EFF060F000496
:103F100002EF7EFF060F000403EF7EFF060F000492
:103F200004EF7EFF060F000405EF7EFF060F00047E
:103F300006EF7EFF060F000407EF7EFF060F00046A
:103F400008EF7EFF060F000409EF7EFF060F000456
:103F500010EF7EFF060F000101EF7EFF060F00024B
:103F600001EF7EFF060F000301EF7EFF0606000053
:103F700050EF7EFF060600003CEF7EFF06060000C5
:103F800028EF7EFF0606000014EF0000000000008E
:103F900000000000000000000000000000F8000029
:103FA0000000000000333000000000160E00160E66
:103FB0000000000000000000000040C07840C07811
:103FC0004000043F04043F040400007088FC0830F3
:103FD0000000001820FF211E0000F008F000E0188B
:103FE000000000211C031E211E0000F00888700044
:103FF00000001E21232419272110000000160E00A6
:1040000000000000000000000000000000E01804B4
:104010000200000000071820400000020418E00021
:1040200000000040201807000000404080F0804061
:1040300040000202010F01020200000000F0000037
:1040400000000101011F010101000000000000004B
:10405000000000B070000000000000000000000040
:104060000000000101010101010100000000000049
:104070000000003030000000000000000000806000
:104080001804006018060100000000E01008081085
:10409000E000000F102020100F00001010F80000AA
:1040A00000000020203F2020000000700808088841
:1040B0007000003028242221300000300888884811
:1040C00030000018202020110E000000C02010F841
:1040D000000000070424243F240000F80888880812
:1040E00008000019212020110E0000E01088881817
:1040F0000000000F112020110E0000380808C838F9
:1041000008000000003F00000000007088080888D8
:104110007000001C222121221C0000E01008081061
:10412000E0000000312222110F00000000C0C0009A
:1041300000000000003030000000000000C0C0009F
:104140000000000080B070000000000080402010DF
:104150000800000102040810200040404040404098
:1041600040000404040404040400000810204080FB
:104170000000002010080402010000704808080830
:10418000F0000000003036010000C030C828E81000
:10419000E0000718272423140B000000C038E000BB
:1041A0000000203C23020227382008F88888887005
:1041B0000000203F202020110E00C0300808080811
:1041C0003800071820202010080008F808080810F8
:1041D000E000203F202020100F0008F88888E80821
:1041E0001000203F20202320180008F88888E808C5
:1041F0001000203F200003000000C03008080838ED
:10420000000007182020221E020008F808000008FD
:10421000F808203F210101213F20000808F8080884
:1042200000000020203F2020000000000808F808BF
:104230000800C08080807F00000008F888C028182F
:104240000800203F20012638200008F80800000060
:104250000000203F20202020300008F8F800F8F867
:104260000800203F003F003F200008F830C0000851
:10427000F808203F200007183F00E0100808081049
:10428000E0000F10202020100F0008F80808080890
:10429000F000203F210101010000E0100808081093
:1042A000E0000F18242438504F0008F888888888C8
:1042B0007000203F2000030C3020007088080808A0
:1042C00038000038202121221C00180808F80808AE
:1042D00018000000203F2000000008F80800000837
:1042E000F808001F202020201F000878880000C840
:1042F0003808000007380E010000F80800F8000830
:10430000F800033C0700073C030008186880806839
:10431000180820302C03032C30200838C800C83877
:1043200008000000203F2000000010080808C838DE
:1043300008002038262120201800000000FE02027C
:1043400002000000007F40404000000C30C0000030
:104350000000000000010638C00000020202FE005A
:104360000000004040407F000000002010080408CA
:10437000102000000000000000000000000000000D
:10438000000080808080808080800002040800001F
:10439000000000000000000000000000808080801D
:1043A00000000019242222223F2008F8008080000B
:1043B0000000003F112020110E00000000808080CE
:1043C0000000000E112020201100000000808088D5
:1043D000F800000E112020103F2000008080808017
:1043E0000000001F222222221300008080F0888813
:1043F00088180020203F202000000000808080805E
:104400008000006B94949493600008F80080808092
:104410000000203F210000203F20008098980000ED
:1044200000000020203F202000000000008098981D
:10443000000000C08080807F000008F800008080BD
:104440008000203F24022D302000000808F80000E2
:1044500000000020203F202000008080808080809D
:104460008000203F20003F20003F008080008080AF
:10447000000000203F2100203F200000808080803D
:104480000000001F202020201F008080008080006E
:10449000000080FFA12020110E000000008080801D
:1044A0008000000E112020A0FF808080800080808E
:1044B000800020203F2120000100000080808080BB
:1044C00080000033242424241900008080E08080B0
:1044D00000000000001F20200000808000000080FD
:1044E0008000001F202020103F208080800000805E
:1044F000808000010E30080601008080008000806E
:1045000080800F300C030C300F0000808000808012
:1045100080000020312E0E3120008080800000803D
:10452000808080818E7018060100008080808080ED
:1045300080000021302C2221300000000000807C0F
:10454000020200000000003F404000000000FF00A9
:10455000000000000000FF0000000002027C80005C
:1045600000000040403F000000000080404080000C
:1045700000800000000000010100000000000000B9
:104580000000002F000000000700070000147F1447
:104590007F1400242A7F2A12002313086462003645
:1045A0004955225000000007000000001C22410075
:1045B000000041221C000014083E08140008083EB8
:1045C0000808000000A060000008080808080000B3
:1045D00060600000002010080402003E5149453E82
:1045E0000000427F400000426151494600214145A0
:1045F0004B31001814127F10002745454539003C07
:104600004A494930000171090503003649494936D4
:1046100000064949291E00003636000000005636C3
:1046200000000008142241000014141414140000A7
:1046300041221408000201510906003E4955592E35
:10464000007C1211127C007F49494936003E4141ED
:104650004122007F4141221C007F49494941007F9E
:1046600009090901003E4149497A007F0808087F8D
:104670000000417F4100002040413F01007F0814BD
:104680002241007F40404040007F020C027F007FBB
:104690000408107F003E4141413E007F09090906A0
:1046A000003E4151215E007F0919294600464949D3
:1046B00049310001017F0101003F4040403F001FA0
:1046C0002040201F003F4038403F0063140814631F
:1046D00000070870080700615149454300007F4109
:1046E0004100000204081020000041417F00000446
:1046F000020102040040404040400000010204006A
:10470000002054545478007F4844443800384444CE
:10471000442000384444487F00385454541800085A
:104720007E0901020018A4A4A47C007F0804047878
:104730000000447D4000004080847D00007F102800
:1047400044000000417F4000007C04180478007C95
:104750000804047800384444443800FC2424241815
:104760000018242418FC007C080404080048545451
:10477000542000043F444020003C4040207C001C6A
:104780002040201C003C4030403C0044281028447D
:10479000001CA0A0A07C004464544C440000087F8E
:1047A00041000000007F00000000417F0800000879
:1047B00004081008EFBC8C0000000000000000009E
:1047C0000000000000000000000058380000000059
:1047D0000000000000000000E380820000000000F4
:1047E000000000000000000000000000000018248D
:1047F000241800000000000000000000E4BDA0003C
:10480000008060F8074020180F08C8080828180022
:10481000010000FF00100C0340807F00010618001B
:10482000E5A5BD001010F01F10F000808282E2921A
:104830008A868000402215081661000040807F00B3
:1048400000000000E4B89600202020FE2020FF2079
:104850002020FF20202020000000007F404047440F
:104860004444474040400000E7958C00000000FEB3
:10487000929292FE929292FE000000000808048438
:10488000621E010001FE020404080800000000008E
:10489000FF0101013109090909897101010101FFC4
:1048A000FF8080808080809681808080808080FFF3
:1048B000FF01818181FD8991A1C1FD81818101FF7C
:1048C000FF808080809F888482819F80808080FF9D
:1048D00000000000000000000000000000000000D8
:1048E00000000000000000000000000000000000C8
:1048F00000000000000000000000000000000000B8
:1049000000000000000000000000000000000000A7
:104910000000000000000000000000000000000097
:104920000000000000000000000000000000000087
:104930000000000000000000000000000000000077
:104940000000000000000000000000000000000067
:104950000000000000000000000000000000000057
:104960000000000000000000000000000000000047
:104970000000000000000000000000000000000037
:104980000000000000000000000000000000000027
:104990000000000000000000000000000000000017
:1049A0000000000000000000000000000000000007
:1049B00000000000000000000000000000000000F7
:1049C00000000000000000000000000000000000E7
:1049D00000000000000000000000000000000000D7
:1049E00000000000000000000000000000000000C7
:1049F00000000000000000000000000000008080B7
:104A00008080808080000000000000000000000026
:104A10000000000000000000000000000000000096
:104A20000000000000000000000000000000000086
:104A30000000000000000000000000000000000076
:104A40000000000000000000000000000000000066
:104A50000000000000000000000000000000000056
:104A60000000000000000000000000000000000046
:104A700000000000000086C6C6C7C7E3E3E3E3E327
:104A8000E1E1E3E7C7C7870600000000000000007F
:104A90000000000000000000000000000000001006
:104AA000181C1C1E0E060787838387070707060648
:104AB0000E1E1C1C1C18000000000000000000005E
:104AC00000000000000000000000000000000000E6
:104AD00000000000000000000000000000000000D6
:104AE00000000000000000000000000000000000C6
:104AF00000000000000F0F1F1F3F3F3838303030DC
:104B000038383D3F1F1F1F0F00000000000000004D
:104B1000000000000000000000000000000000088D
:104B20003C7E7EFEFFEFC7C3C3C3C3C3E7FFFFFFE7
:104B30007E7E3C1800000000000000000000000025
:104B40000000000000000000000000000000000065
:104B5000000000000000000000000000103838389D
:104B60007C7C7C7C7C7C6C6C6C6C6C6C6C6C6C6C25
:104B70007C7C7C78383830000000000000000000A9
:104B8000000000C0C0C0C0C00000000000000080E5
:104B900080808000000000000000C0C0C0C0800015
:104BA00000000000000001010101010100008080FF
:104BB000C0C0C0C0C0C0C0C0C0C0C0C0C0C0C08035
:104BC00080800000000000000000000000000000E5
:104BD00000000000000000000000000000000000D5
:104BE00000000000000000000000000000000000C5
:104BF00000000000000000000000000000000000B5
:104C0000000000070F1F1F1F1C181818181C1F0F6B
:104C10000F1F1F3E383838383838393F1F1F0F0FE5
:104C20000400000000000000000000000307070768
:104C300007070706060E0E0E0E0E0E0E0E0F0F07BE
:104C40000707030300000000000000000000000050
:104C50000000000000000000000000000000000054
:104C60000000000000000000000000000000000044
:104C70000000000000000000000000000000000034
:104C80000000000000000000000000000000000024
:104C90000000000000000000000000000000000014
:104CA0000000000000000000000000000000000004
:104CB00000000000000000000000000000000000F4
:104CC00000000000000000000000000000000000E4
:104CD00000000000000000000000000000000000D4
:104CE00000000000000000000000000000000000C4
:104CF00000000000000000000000000000000000B4
:104D000000000000000000000000000000000000A3
:104D10000000000000000000000000000000000093
:104D20000000000000000000000000000000000083
:104D30000000000000000000000000000000000073
:104D40000000000000000000000000000000000063
:104D50000000000000000000000000000000000053
:104D60000000000000000000000000000080C0E023
:104D7000F0F8F8FCFCFCFCFCFCF8F0F0E080000033
:104D80000000000000000000000000000000000023
:104D90000000000000000000000000000000000013
:104DA0000080C0E0F0F8F8FCFCFCFCFCF8F8F0F047
:104DB000E080000000000000000000000000000093
:104DC00000000000000000000000000000000000E3
:104DD00000000000000000000000000000000000D3
:104DE00000000000000000000000C0F8FEFFFFFF10
:104DF000FFFFFFFFFFFFFFFFFFFFFFFFFFFFFFFCC6
:104E0000F080000000000000000000000000000032
:104E10000000000000000000000000000000C0F8DA
:104E2000FEFFFFFFFFFFFFFFFFFFFFFFFFFFFFFF93
:104E3000FFFFFFFCF0800000000000000000000009
:104E40000000000000000000000000000000000062
:104E50000000000000000000000000000000000052
:104E6000000000000000000000FCFFFFFFFFFFFF4C
:104E7000FFFFFFFFFFFFFFFFFFFFFFFFFFFFFFFF42
:104E8000FFFF000000000000000000000000000024
:104E900000000000000000000000000000FCFFFF18
:104EA000FFFFFFFFFFFFFFFFFFFFFFFFFFFFFFFF12
:104EB000FFFFFFFFFFFF00000000000000000000F8
:104EC00000000000000000000000000000000000E2
:104ED00000000000000000000000000000000000D2
:104EE0000000000000000000003FFFFFFFFFFFFF89
:104EF000FFFFFFFFFFFFFFFFFFFFFFFFFFFFFFFFC2
:104F0000FFFF0000000000000000000000000000A3
:104F1000000000000000000000000000003FFFFF54
:104F2000FFFFFFFFFFFFFFFFFFFFFFFFFFFFFFFF91
:104F3000FFFFFFFFFFFF0000000000000000000077
:104F40000000000000000000000000000000000061
:104F50000000000000000000000000000000000051
:104F600000000000000000000000031F7FFFFFFFA3
:104F7000FFFFFFFFFFFFFFFFFFFFFFFFFFFFFF3F01
:104F80000F01000000000000000000000000000011
:104F90000000000000000000000000000000031FEF
:104FA0007FFFFFFFFFFFFFFFFFFFFFFFFFFFFFFF91
:104FB000FFFFFF3F0F0100000000000000000000A5
:104FC00000000000000000000000000000000000E1
:104FD00000000000000000000000000000000000D1
:104FE00000000000000000000000000000010307B6
:104FF0000F1F1F3F3F3F3F3F3F1F1F0F0703000093
:1050000000000000000000000000000000000000A0
:105010000000000000000000000000000000000090
:10502000000103070F1F1F3F3F3F3F3F3F1F1F0F61
:105030000703000000000000000000000000000066
:105040000000000000000000000000000000000060
:105050000000000000000000000000000000000050
:105060000000000000000000000000000000000040
:105070000000000000000000000000000000000030
:105080000000000000000000000000000000000020
:105090000000000000000000000000000000000010
:1050A0000000000000000000000000000000000000
:1050B00000000000000000000000000000000000F0
:1050C00000000000000000000000000000000000E0
:1050D00000000000000000000000000000000000D0
:1050E00000000000000000000000000000000000C0
:1050F00000000000000000000000000000000000B0
:10510000000000000000000000000000000000009F
:10511000000000000000000000000000000000008F
:10512000000000000000000000000000000000007F
:10513000000000000000000000000000000000006F
:10514000000000000000000000000000000000005F
:1051500000000000000000003070F0F0F0E0E0E03F
:10516000C0C080808000000000000000000000003F
:10517000000000000000000000000000000000002F
:10518000000000000000000000000000000000001F
:10519000000000000000000000000000000000000F
:1051A00000000000000000000000000000000000FF
:1051B000000000000000000000808080C0C0E0E02F
:1051C000F0F07078787830000000000000000000F7
:1051D00000000000000000000000000000000101CD
:1051E0000303030707070F0E1E1E1C3C3C7878784C
:1051F000F0F0E0E0E0C0C0C08080000000000000EF
:10520000000000000000000000000000000000009E
:10521000000000000000000000000000000000008E
:10522000000000000000000000C0E0E0F0F0F0F836
:10523000F8F83C1C1E1E0F0F0707070703010101AA
:10524000010000000000000000000000000000005D
:105250000000000000000000000000008080C0C0CE
:10526000C0C0E0E0E0E0F07070787838383C3C1C7A
:105270001C1E1F1F0F0F0F0F070703000000000069
:10528000000000000000000000000000000000001E
:10529000000000000000000000000000000000000E
:1052A00000000000000000000000010303030707E6
:1052B000070F0F0F0F1E1E1E3C3C3C787878F0F055
:1052C000F0E0E0E0E0C0800000000000000000002E
:1052D000000000000000000000008081030303F3D1
:1052E0006101010180E03000000080C0C0000000CA
:1052F00000000000000000000000000000000000AE
:1053000000000000103878F8F8F878383838383865
:1053100038383838383838383878F8F8783830004D
:10532000000000000000000000000000000000007D
:10533000000000C0E0000080F03000000080F0704D
:1053400000000101E1C100000000000000000000B9
:10535000000000000000000000070F0100103F0FD8
:105360000000007C1F030000603C0F0300000000F1
:10537000000000000000000000000000000000002D
:1053800000000000000000000F3FFCF0C0C0C0C0E3
:10539000C0C0C0C0C0C0C0C0E0FC7F0F00000000A3
:1053A00000000000000000000000000000000000FD
:1053B000000000070300003F070000003C1F000042
:1053C00000103C1F01000000000000000000000071
:1053D00000000000000000000000000000000000CD
:1053E00000000000000000000000000000000000BD
:1053F00000000000000000000000000000000000AD
:10540000000000000000000000000000000000009C
:10541000000000000000000000000000000000008C
:10542000000000000000000000000000000000007C
:10543000000000000000000000000000000000006C
:10544000000000000000000000000000000000005C
:10545000000000000000000000000000000000004C
:10546000000000000000000000000000000000003C
:10547000000000000000000000000000000000002C
:10548000000000000000000000000000000000001C
:10549000000000000000000000000000000000000C
:1054A00000000000000000000000000000000000FC
:1054B00000000000000000000000000000000000EC
:1054C00000000000000000000000000000000000DC
:1054D00000000000000000000000000000000000CC
:1054E00000000000000000000000000000000000BC
:1054F00000000000000000000000000000000000AC
:10550000000000000000000000000000000000009B
:10551000000000000000000000000000000000008B
:10552000000000000000000000000000000000007B
:10553000000000000000000000000000000000006B
:10554000000000000000000000000000000000005B
:1055500000000000000000C0F838383060E0C08073
:10556000000000000000000000000000000000003B
:10557000000000000000000000000000000000002B
:10558000000000000000000000000000000000001B
:10559000000000000000000000000000000000000B
:1055A00000000000000000000000000000000000FB
:1055B000000000000000000000000000000080C0AB
:1055C000E07030387CF08000000000000000000037
:1055D000000000000000FCFF870000000000010345
:1055E000070E0C183870E0C08000000000000000BA
:1055F00000000000000000000000000000000000AB
:10560000000000000000000000000000000000009A
:10561000000000000000000000000000000000008A
:10562000000000000000000000000000000000007A
:10563000000000000080C0E070381C0E0607030167
:105640000000000000FFFF3000000000000000002C
:1056500000000000000000071F3C70E0C0808000D8
:1056600000000000000000010103070E1C387060FC
:10567000C0C080000000000000000000000000002A
:10568000000000000000000000000000000000001A
:1056900080C0C0000000000000000000000000000A
:1056A000000000000000000000000080C0E060304A
:1056B000381C0E070301000000000000000080807D
:1056C000C0C060381C0F0300000000000000000094
:1056D0000000000000000000000000000001018345
:1056E00003070606068C8C0C0C0C181818181818D2
:1056F00018191B1F1E1C18100000000000000000DD
:105700000000000000FEFE0E1C38706070180E07CE
:1057100003010103061C3830381C0EFFFF00000097
:1057200000000000000018181C1E1F1B1918181874
:105730001898980C0C0C0C0C8C06060607030381B9
:105740000100000000000000000000000000000058
:1057500000000000000000000000000000101E0714
:105760000000C0701C030000000000F03E000000BC
:105770000000000000000000000000000000000029
:105780000000000000FFFF8000000000000000009B
:105790000000000000000000000080FFFF0000008B
:1057A00000000000000000000000000000000018E1
:1057B0000E0300000000380F0100000000003F034E
:1057C00000000000000000000000000000000000D9
:1057D00000000000000000000000000000000000C9
:1057E00000000000000000000000000000000000B9
:1057F00000000000000000000000000000000000A9
:10580000000000000000030303030303030303037A
:105810000303030303030303030303030100000063
:105820000000000000000000000000000000000078
:105830000000000000000000000000000000000068
:105840000000000000000000000000000000000058
:105850000000000000000000000000000000000048
:105860000000000000000000000000000000000038
:105870000000000000000000000000000000000028
:105880000000000000000000000000000000000018
:105890000000000000000000000000000000000008
:1058A00000000000000000000000000000000000F8
:1058B00000000000000000000000000000000000E8
:1058C00000000000000000000000000000000000D8
:1058D00000000000000000000000000000000000C8
:1058E00000000000000000000000000000000000B8
:1058F00000000000000000000000000000000000A8
:105900000000000000000000000000000000000097
:105910000000000000000000000000000000000087
:105920000000000000000000000000000000000077
:105930000000000000000000000000000000000067
:105940000000000000000000000000000000000057
:105950000000000000000000000000000000000047
:105960000000000000000000000000000000000037
:105970000000000000000000000000000000000027
:105980000000000000000000000000000000000017
:105990000000000000000000000000000000000007
:1059A00000000000000000000000000000000000F7
:1059B00000000000000000000000000000000000E7
:1059C00000000000000000000000000000000000D7
:1059D00000000000000000808080C0C0C0C0C0C0C7
:1059E000C0C0C0C0C0C0C0C0E0E0E0E0E0E0E0E0B7
:1059F000E0E0E0E0E0E0F0F0F0F020000000000087
:105A00000000000000000000000000000000000096
:105A10000000000000000000000000000000000086
:105A2000000008181858F8F8F8F8F8F8F8F8F8F836
:105A3000F8F8F8F8F8F8F8F8F8F8F8F8F8F8F0F0F6
:105A4000F0F0F0F0F0F0F0F0F0F0F0000000000006
:105A5000000000000080F3F3FBFBFBFBFBFFFFFFFC
:105A6000FFFFFFFFFFFFFFFFFFFFFFFF7D7D7D3D8E
:105A70003D3D3D3D3D1D1F1F1F1F1E0E0E0C0C000A
:105A80000000000000000000000000000000000016
:105A90000000000000000000000000000000000006
:105AA000000000003C7EFFFFFFFFFFFFFFFFFFFF46
:105AB000FFFFFFFFFFFFFFFFFFFFFFFFFFFDFDF900
:105AC000F9F9F9F9F9F9F1F1F1703000000000008D
:105AD0000000000000010100113F3F3F1F1F1F1F7A
